{
  "_format": "hh-sol-artifact-1",
  "contractName": "QuiFlixNFT",
  "sourceName": "contracts/QuiFlixNFT.sol",
  "abi": [
    {
      "inputs": [
        {
          "internalType": "address",
          "name": "_royaltyRecipient",
          "type": "address"
        },
        {
          "internalType": "address",
          "name": "_platformFeeRecipient",
          "type": "address"
        }
      ],
      "stateMutability": "nonpayable",
      "type": "constructor"
    },
    {
      "anonymous": false,
      "inputs": [
        {
          "indexed": true,
          "internalType": "address",
          "name": "owner",
          "type": "address"
        },
        {
          "indexed": true,
          "internalType": "address",
          "name": "approved",
          "type": "address"
        },
        {
          "indexed": true,
          "internalType": "uint256",
          "name": "tokenId",
          "type": "uint256"
        }
      ],
      "name": "Approval",
      "type": "event"
    },
    {
      "anonymous": false,
      "inputs": [
        {
          "indexed": true,
          "internalType": "address",
          "name": "owner",
          "type": "address"
        },
        {
          "indexed": true,
          "internalType": "address",
          "name": "operator",
          "type": "address"
        },
        {
          "indexed": false,
          "internalType": "bool",
          "name": "approved",
          "type": "bool"
        }
      ],
      "name": "ApprovalForAll",
      "type": "event"
    },
    {
      "anonymous": false,
      "inputs": [
        {
          "indexed": false,
          "internalType": "uint256",
          "name": "_fromTokenId",
          "type": "uint256"
        },
        {
          "indexed": false,
          "internalType": "uint256",
          "name": "_toTokenId",
          "type": "uint256"
        }
      ],
      "name": "BatchMetadataUpdate",
      "type": "event"
    },
    {
      "anonymous": false,
      "inputs": [
        {
          "indexed": true,
          "internalType": "uint256",
          "name": "tokenId",
          "type": "uint256"
        },
        {
          "indexed": true,
          "internalType": "address",
          "name": "producer",
          "type": "address"
        },
        {
          "indexed": false,
          "internalType": "string",
          "name": "title",
          "type": "string"
        }
      ],
      "name": "FilmApproved",
      "type": "event"
    },
    {
      "anonymous": false,
      "inputs": [
        {
          "indexed": true,
          "internalType": "uint256",
          "name": "tokenId",
          "type": "uint256"
        },
        {
          "indexed": true,
          "internalType": "address",
          "name": "producer",
          "type": "address"
        },
        {
          "indexed": false,
          "internalType": "string",
          "name": "title",
          "type": "string"
        },
        {
          "indexed": false,
          "internalType": "uint256",
          "name": "price",
          "type": "uint256"
        }
      ],
      "name": "FilmCreated",
      "type": "event"
    },
    {
      "anonymous": false,
      "inputs": [
        {
          "indexed": true,
          "internalType": "uint256",
          "name": "tokenId",
          "type": "uint256"
        },
        {
          "indexed": true,
          "internalType": "address",
          "name": "buyer",
          "type": "address"
        },
        {
          "indexed": false,
          "internalType": "uint256",
          "name": "price",
          "type": "uint256"
        }
      ],
      "name": "FilmPurchased",
      "type": "event"
    },
    {
      "anonymous": false,
      "inputs": [
        {
          "indexed": true,
          "internalType": "uint256",
          "name": "tokenId",
          "type": "uint256"
        },
        {
          "indexed": true,
          "internalType": "address",
          "name": "seller",
          "type": "address"
        },
        {
          "indexed": true,
          "internalType": "address",
          "name": "buyer",
          "type": "address"
        },
        {
          "indexed": false,
          "internalType": "uint256",
          "name": "price",
          "type": "uint256"
        }
      ],
      "name": "FilmResold",
      "type": "event"
    },
    {
      "anonymous": false,
      "inputs": [
        {
          "indexed": false,
          "internalType": "uint256",
          "name": "_tokenId",
          "type": "uint256"
        }
      ],
      "name": "MetadataUpdate",
      "type": "event"
    },
    {
      "anonymous": false,
      "inputs": [
        {
          "indexed": true,
          "internalType": "address",
          "name": "previousOwner",
          "type": "address"
        },
        {
          "indexed": true,
          "internalType": "address",
          "name": "newOwner",
          "type": "address"
        }
      ],
      "name": "OwnershipTransferred",
      "type": "event"
    },
    {
      "anonymous": false,
      "inputs": [
        {
          "indexed": true,
          "internalType": "uint256",
          "name": "tokenId",
          "type": "uint256"
        },
        {
          "indexed": true,
          "internalType": "address",
          "name": "recipient",
          "type": "address"
        },
        {
          "indexed": false,
          "internalType": "uint256",
          "name": "amount",
          "type": "uint256"
        }
      ],
      "name": "RoyaltyPaid",
      "type": "event"
    },
    {
      "anonymous": false,
      "inputs": [
        {
          "indexed": true,
          "internalType": "address",
          "name": "from",
          "type": "address"
        },
        {
          "indexed": true,
          "internalType": "address",
          "name": "to",
          "type": "address"
        },
        {
          "indexed": true,
          "internalType": "uint256",
          "name": "tokenId",
          "type": "uint256"
        }
      ],
      "name": "Transfer",
      "type": "event"
    },
    {
      "inputs": [],
      "name": "PLATFORM_FEE_BASIS_POINTS",
      "outputs": [
        {
          "internalType": "uint256",
          "name": "",
          "type": "uint256"
        }
      ],
      "stateMutability": "view",
      "type": "function"
    },
    {
      "inputs": [],
      "name": "ROYALTY_BASIS_POINTS",
      "outputs": [
        {
          "internalType": "uint256",
          "name": "",
          "type": "uint256"
        }
      ],
      "stateMutability": "view",
      "type": "function"
    },
    {
      "inputs": [
        {
          "internalType": "address",
          "name": "to",
          "type": "address"
        },
        {
          "internalType": "uint256",
          "name": "tokenId",
          "type": "uint256"
        }
      ],
      "name": "approve",
      "outputs": [],
      "stateMutability": "nonpayable",
      "type": "function"
    },
    {
      "inputs": [
        {
          "internalType": "uint256",
          "name": "_tokenId",
          "type": "uint256"
        }
      ],
      "name": "approveFilm",
      "outputs": [],
      "stateMutability": "nonpayable",
      "type": "function"
    },
    {
      "inputs": [
        {
          "internalType": "address",
          "name": "owner",
          "type": "address"
        }
      ],
      "name": "balanceOf",
      "outputs": [
        {
          "internalType": "uint256",
          "name": "",
          "type": "uint256"
        }
      ],
      "stateMutability": "view",
      "type": "function"
    },
    {
      "inputs": [
        {
          "internalType": "string",
          "name": "_title",
          "type": "string"
        },
        {
          "internalType": "string",
          "name": "_description",
          "type": "string"
        },
        {
          "internalType": "string",
          "name": "_genre",
          "type": "string"
        },
        {
          "internalType": "uint256",
          "name": "_duration",
          "type": "uint256"
        },
        {
          "internalType": "uint256",
          "name": "_releaseDate",
          "type": "uint256"
        },
        {
          "internalType": "string",
          "name": "_ipfsHash",
          "type": "string"
        },
        {
          "internalType": "uint256",
          "name": "_price",
          "type": "uint256"
        },
        {
          "internalType": "string",
          "name": "_tokenURI",
          "type": "string"
        }
      ],
      "name": "createFilm",
      "outputs": [
        {
          "internalType": "uint256",
          "name": "",
          "type": "uint256"
        }
      ],
      "stateMutability": "nonpayable",
      "type": "function"
    },
    {
      "inputs": [
        {
          "internalType": "uint256",
          "name": "_tokenId",
          "type": "uint256"
        }
      ],
      "name": "deactivateFilm",
      "outputs": [],
      "stateMutability": "nonpayable",
      "type": "function"
    },
    {
      "inputs": [
        {
          "internalType": "uint256",
          "name": "",
          "type": "uint256"
        }
      ],
      "name": "films",
      "outputs": [
        {
          "internalType": "string",
          "name": "title",
          "type": "string"
        },
        {
          "internalType": "string",
          "name": "description",
          "type": "string"
        },
        {
          "internalType": "string",
          "name": "genre",
          "type": "string"
        },
        {
          "internalType": "uint256",
          "name": "duration",
          "type": "uint256"
        },
        {
          "internalType": "uint256",
          "name": "releaseDate",
          "type": "uint256"
        },
        {
          "internalType": "address",
          "name": "producer",
          "type": "address"
        },
        {
          "internalType": "string",
          "name": "ipfsHash",
          "type": "string"
        },
        {
          "internalType": "uint256",
          "name": "price",
          "type": "uint256"
        },
        {
          "internalType": "bool",
          "name": "isActive",
          "type": "bool"
        }
      ],
      "stateMutability": "view",
      "type": "function"
    },
    {
      "inputs": [
        {
          "internalType": "uint256",
          "name": "tokenId",
          "type": "uint256"
        }
      ],
      "name": "getApproved",
      "outputs": [
        {
          "internalType": "address",
          "name": "",
          "type": "address"
        }
      ],
      "stateMutability": "view",
      "type": "function"
    },
    {
      "inputs": [
        {
          "internalType": "uint256",
          "name": "_tokenId",
          "type": "uint256"
        }
      ],
      "name": "getFilmMetadata",
      "outputs": [
        {
          "components": [
            {
              "internalType": "string",
              "name": "title",
              "type": "string"
            },
            {
              "internalType": "string",
              "name": "description",
              "type": "string"
            },
            {
              "internalType": "string",
              "name": "genre",
              "type": "string"
            },
            {
              "internalType": "uint256",
              "name": "duration",
              "type": "uint256"
            },
            {
              "internalType": "uint256",
              "name": "releaseDate",
              "type": "uint256"
            },
            {
              "internalType": "address",
              "name": "producer",
              "type": "address"
            },
            {
              "internalType": "string",
              "name": "ipfsHash",
              "type": "string"
            },
            {
              "internalType": "uint256",
              "name": "price",
              "type": "uint256"
            },
            {
              "internalType": "bool",
              "name": "isActive",
              "type": "bool"
            }
          ],
          "internalType": "struct QuiFlixNFT.FilmMetadata",
          "name": "",
          "type": "tuple"
        }
      ],
      "stateMutability": "view",
      "type": "function"
    },
    {
      "inputs": [
        {
          "internalType": "address",
          "name": "_producer",
          "type": "address"
        }
      ],
      "name": "getProducerFilms",
      "outputs": [
        {
          "internalType": "uint256[]",
          "name": "",
          "type": "uint256[]"
        }
      ],
      "stateMutability": "view",
      "type": "function"
    },
    {
      "inputs": [
        {
          "internalType": "address",
          "name": "owner",
          "type": "address"
        },
        {
          "internalType": "address",
          "name": "operator",
          "type": "address"
        }
      ],
      "name": "isApprovedForAll",
      "outputs": [
        {
          "internalType": "bool",
          "name": "",
          "type": "bool"
        }
      ],
      "stateMutability": "view",
      "type": "function"
    },
    {
      "inputs": [],
      "name": "name",
      "outputs": [
        {
          "internalType": "string",
          "name": "",
          "type": "string"
        }
      ],
      "stateMutability": "view",
      "type": "function"
    },
    {
      "inputs": [],
      "name": "owner",
      "outputs": [
        {
          "internalType": "address",
          "name": "",
          "type": "address"
        }
      ],
      "stateMutability": "view",
      "type": "function"
    },
    {
      "inputs": [
        {
          "internalType": "uint256",
          "name": "tokenId",
          "type": "uint256"
        }
      ],
      "name": "ownerOf",
      "outputs": [
        {
          "internalType": "address",
          "name": "",
          "type": "address"
        }
      ],
      "stateMutability": "view",
      "type": "function"
    },
    {
      "inputs": [],
      "name": "platformFeeRecipient",
      "outputs": [
        {
          "internalType": "address",
          "name": "",
          "type": "address"
        }
      ],
      "stateMutability": "view",
      "type": "function"
    },
    {
      "inputs": [
        {
          "internalType": "address",
          "name": "",
          "type": "address"
        },
        {
          "internalType": "uint256",
          "name": "",
          "type": "uint256"
        }
      ],
      "name": "producerFilms",
      "outputs": [
        {
          "internalType": "uint256",
          "name": "",
          "type": "uint256"
        }
      ],
      "stateMutability": "view",
      "type": "function"
    },
    {
      "inputs": [
        {
          "internalType": "uint256",
          "name": "_tokenId",
          "type": "uint256"
        }
      ],
      "name": "purchaseFilm",
      "outputs": [],
      "stateMutability": "payable",
      "type": "function"
    },
    {
      "inputs": [],
      "name": "renounceOwnership",
      "outputs": [],
      "stateMutability": "nonpayable",
      "type": "function"
    },
    {
      "inputs": [
        {
          "internalType": "uint256",
          "name": "_tokenId",
          "type": "uint256"
        },
        {
          "internalType": "uint256",
          "name": "_newPrice",
          "type": "uint256"
        }
      ],
      "name": "resellFilm",
      "outputs": [],
      "stateMutability": "nonpayable",
      "type": "function"
    },
    {
      "inputs": [
        {
          "internalType": "uint256",
          "name": "_tokenId",
          "type": "uint256"
        },
        {
          "internalType": "uint256",
          "name": "_salePrice",
          "type": "uint256"
        }
      ],
      "name": "royaltyInfo",
      "outputs": [
        {
          "internalType": "address",
          "name": "",
          "type": "address"
        },
        {
          "internalType": "uint256",
          "name": "",
          "type": "uint256"
        }
      ],
      "stateMutability": "view",
      "type": "function"
    },
    {
      "inputs": [],
      "name": "royaltyRecipient",
      "outputs": [
        {
          "internalType": "address",
          "name": "",
          "type": "address"
        }
      ],
      "stateMutability": "view",
      "type": "function"
    },
    {
      "inputs": [
        {
          "internalType": "address",
          "name": "from",
          "type": "address"
        },
        {
          "internalType": "address",
          "name": "to",
          "type": "address"
        },
        {
          "internalType": "uint256",
          "name": "tokenId",
          "type": "uint256"
        }
      ],
      "name": "safeTransferFrom",
      "outputs": [],
      "stateMutability": "nonpayable",
      "type": "function"
    },
    {
      "inputs": [
        {
          "internalType": "address",
          "name": "from",
          "type": "address"
        },
        {
          "internalType": "address",
          "name": "to",
          "type": "address"
        },
        {
          "internalType": "uint256",
          "name": "tokenId",
          "type": "uint256"
        },
        {
          "internalType": "bytes",
          "name": "data",
          "type": "bytes"
        }
      ],
      "name": "safeTransferFrom",
      "outputs": [],
      "stateMutability": "nonpayable",
      "type": "function"
    },
    {
      "inputs": [
        {
          "internalType": "address",
          "name": "operator",
          "type": "address"
        },
        {
          "internalType": "bool",
          "name": "approved",
          "type": "bool"
        }
      ],
      "name": "setApprovalForAll",
      "outputs": [],
      "stateMutability": "nonpayable",
      "type": "function"
    },
    {
      "inputs": [
        {
          "internalType": "bytes4",
          "name": "interfaceId",
          "type": "bytes4"
        }
      ],
      "name": "supportsInterface",
      "outputs": [
        {
          "internalType": "bool",
          "name": "",
          "type": "bool"
        }
      ],
      "stateMutability": "view",
      "type": "function"
    },
    {
      "inputs": [],
      "name": "symbol",
      "outputs": [
        {
          "internalType": "string",
          "name": "",
          "type": "string"
        }
      ],
      "stateMutability": "view",
      "type": "function"
    },
    {
      "inputs": [
        {
          "internalType": "uint256",
          "name": "index",
          "type": "uint256"
        }
      ],
      "name": "tokenByIndex",
      "outputs": [
        {
          "internalType": "uint256",
          "name": "",
          "type": "uint256"
        }
      ],
      "stateMutability": "view",
      "type": "function"
    },
    {
      "inputs": [
        {
          "internalType": "address",
          "name": "owner",
          "type": "address"
        },
        {
          "internalType": "uint256",
          "name": "index",
          "type": "uint256"
        }
      ],
      "name": "tokenOfOwnerByIndex",
      "outputs": [
        {
          "internalType": "uint256",
          "name": "",
          "type": "uint256"
        }
      ],
      "stateMutability": "view",
      "type": "function"
    },
    {
      "inputs": [
        {
          "internalType": "uint256",
          "name": "tokenId",
          "type": "uint256"
        }
      ],
      "name": "tokenURI",
      "outputs": [
        {
          "internalType": "string",
          "name": "",
          "type": "string"
        }
      ],
      "stateMutability": "view",
      "type": "function"
    },
    {
      "inputs": [],
      "name": "totalSupply",
      "outputs": [
        {
          "internalType": "uint256",
          "name": "",
          "type": "uint256"
        }
      ],
      "stateMutability": "view",
      "type": "function"
    },
    {
      "inputs": [
        {
          "internalType": "address",
          "name": "from",
          "type": "address"
        },
        {
          "internalType": "address",
          "name": "to",
          "type": "address"
        },
        {
          "internalType": "uint256",
          "name": "tokenId",
          "type": "uint256"
        }
      ],
      "name": "transferFrom",
      "outputs": [],
      "stateMutability": "nonpayable",
      "type": "function"
    },
    {
      "inputs": [
        {
          "internalType": "address",
          "name": "newOwner",
          "type": "address"
        }
      ],
      "name": "transferOwnership",
      "outputs": [],
      "stateMutability": "nonpayable",
      "type": "function"
    },
    {
      "inputs": [
        {
          "internalType": "uint256",
          "name": "_tokenId",
          "type": "uint256"
        },
        {
          "internalType": "address",
          "name": "_to",
          "type": "address"
        },
        {
          "internalType": "uint256",
          "name": "_price",
          "type": "uint256"
        }
      ],
      "name": "transferWithRoyalty",
      "outputs": [],
      "stateMutability": "payable",
      "type": "function"
    },
    {
      "inputs": [
        {
          "internalType": "address",
          "name": "_newRecipient",
          "type": "address"
        }
      ],
      "name": "updatePlatformFeeRecipient",
      "outputs": [],
      "stateMutability": "nonpayable",
      "type": "function"
    },
    {
      "inputs": [
        {
          "internalType": "address",
          "name": "_newRecipient",
          "type": "address"
        }
      ],
      "name": "updateRoyaltyRecipient",
      "outputs": [],
      "stateMutability": "nonpayable",
      "type": "function"
    }
  ],
  "bytecode": "0x60806040523480156200001157600080fd5b50604051620039143803806200391483398101604081905262000034916200016d565b6040518060400160405280601381526020017f517569466c69782046696c6d205469636b6574000000000000000000000000008152506040518060400160405280600381526020016214519560ea1b81525081600090816200009791906200024c565b506001620000a682826200024c565b505050620000c3620000bd620000fa60201b60201c565b620000fe565b6001600c55601080546001600160a01b039384166001600160a01b0319918216179091556011805492909316911617905562000318565b3390565b600b80546001600160a01b038381166001600160a01b0319831681179093556040519116919082907f8be0079c531659141344cd1fd0a4f28419497f9722a3daafe3b4186f6b6457e090600090a35050565b80516001600160a01b03811681146200016857600080fd5b919050565b600080604083850312156200018157600080fd5b6200018c8362000150565b91506200019c6020840162000150565b90509250929050565b634e487b7160e01b600052604160045260246000fd5b600181811c90821680620001d057607f821691505b602082108103620001f157634e487b7160e01b600052602260045260246000fd5b50919050565b601f82111562000247576000816000526020600020601f850160051c81016020861015620002225750805b601f850160051c820191505b8181101562000243578281556001016200022e565b5050505b505050565b81516001600160401b03811115620002685762000268620001a5565b6200028081620002798454620001bb565b84620001f7565b602080601f831160018114620002b857600084156200029f5750858301515b600019600386901b1c1916600185901b17855562000243565b600085815260208120601f198616915b82811015620002e957888601518255948401946001909101908401620002c8565b5085821015620003085787850151600019600388901b60f8161c191681555b5050505050600190811b01905550565b6135ec80620003286000396000f3fe60806040526004361061020f5760003560e01c80636352211e11610118578063b88d4fde116100a0578063e985e9c51161006f578063e985e9c51461062a578063eb13554f14610673578063f2fde38b14610693578063f5fe7f71146106b3578063fce3b765146106d357600080fd5b8063b88d4fde146105b5578063c87b56dd146105d5578063d094a70a146105f5578063d16172d41461061557600080fd5b80638da5cb5b116100e75780638da5cb5b1461050d57806393aab8d81461052b57806395d89b41146105605780639dfa954c14610575578063a22cb4651461059557600080fd5b80636352211e1461048b57806370a08231146104ab578063715018a6146104cb5780637e60b869146104e057600080fd5b80632b96fd691161019b57806347048efd1161016a57806347048efd146103eb5780634c00de821461040b5780634f6ccce71461042b578063506f1a681461044b5780635aa0be791461045e57600080fd5b80632b96fd69146103765780632f745c59146103965780633c404a9c146103b657806342842e0e146103cb57600080fd5b80630e10b6ef116101e25780630e10b6ef146102c55780630fc499f5146102d857806318160ddd146102f857806323b872dd146103175780632a55205a1461033757600080fd5b806301ffc9a71461021457806306fdde0314610249578063081812fc1461026b578063095ea7b3146102a3575b600080fd5b34801561022057600080fd5b5061023461022f366004612bf5565b6106f3565b60405190151581526020015b60405180910390f35b34801561025557600080fd5b5061025e61071e565b6040516102409190612c62565b34801561027757600080fd5b5061028b610286366004612c75565b6107b0565b6040516001600160a01b039091168152602001610240565b3480156102af57600080fd5b506102c36102be366004612caa565b6107d7565b005b6102c36102d3366004612cd4565b6108f1565b3480156102e457600080fd5b506102c36102f3366004612d09565b610b56565b34801561030457600080fd5b506009545b604051908152602001610240565b34801561032357600080fd5b506102c3610332366004612d24565b610bc8565b34801561034357600080fd5b50610357610352366004612d50565b610bf9565b604080516001600160a01b039093168352602083019190915201610240565b34801561038257600080fd5b50610309610391366004612caa565b610c79565b3480156103a257600080fd5b506103096103b1366004612caa565b610caa565b3480156103c257600080fd5b5061030960fa81565b3480156103d757600080fd5b506102c36103e6366004612d24565b610d40565b3480156103f757600080fd5b50610309610406366004612e1e565b610d5b565b34801561041757600080fd5b5060105461028b906001600160a01b031681565b34801561043757600080fd5b50610309610446366004612c75565b610eff565b6102c3610459366004612c75565b610f92565b34801561046a57600080fd5b5061047e610479366004612c75565b611297565b6040516102409190612f0d565b34801561049757600080fd5b5061028b6104a6366004612c75565b6115c2565b3480156104b757600080fd5b506103096104c6366004612d09565b611622565b3480156104d757600080fd5b506102c36116a8565b3480156104ec57600080fd5b506105006104fb366004612d09565b6116bc565b6040516102409190612fd7565b34801561051957600080fd5b50600b546001600160a01b031661028b565b34801561053757600080fd5b5061054b610546366004612c75565b611728565b6040516102409998979695949392919061301b565b34801561056c57600080fd5b5061025e6119a1565b34801561058157600080fd5b506102c3610590366004612c75565b6119b0565b3480156105a157600080fd5b506102c36105b03660046130a7565b6119f8565b3480156105c157600080fd5b506102c36105d03660046130e3565b611a07565b3480156105e157600080fd5b5061025e6105f0366004612c75565b611a3f565b34801561060157600080fd5b506102c3610610366004612c75565b611a4a565b34801561062157600080fd5b50610309606481565b34801561063657600080fd5b5061023461064536600461315f565b6001600160a01b03918216600090815260056020908152604080832093909416825291909152205460ff1690565b34801561067f57600080fd5b5060115461028b906001600160a01b031681565b34801561069f57600080fd5b506102c36106ae366004612d09565b611b3d565b3480156106bf57600080fd5b506102c36106ce366004612d09565b611bb3565b3480156106df57600080fd5b506102c36106ee366004612d50565b611c25565b60006001600160e01b0319821663152a902d60e11b1480610718575061071882611d38565b92915050565b60606000805461072d90613192565b80601f016020809104026020016040519081016040528092919081815260200182805461075990613192565b80156107a65780601f1061077b576101008083540402835291602001916107a6565b820191906000526020600020905b81548152906001019060200180831161078957829003601f168201915b5050505050905090565b60006107bb82611d5d565b506000908152600460205260409020546001600160a01b031690565b60006107e2826115c2565b9050806001600160a01b0316836001600160a01b0316036108545760405162461bcd60e51b815260206004820152602160248201527f4552433732313a20617070726f76616c20746f2063757272656e74206f776e656044820152603960f91b60648201526084015b60405180910390fd5b336001600160a01b038216148061087057506108708133610645565b6108e25760405162461bcd60e51b815260206004820152603d60248201527f4552433732313a20617070726f76652063616c6c6572206973206e6f7420746f60448201527f6b656e206f776e6572206f7220617070726f76656420666f7220616c6c000000606482015260840161084b565b6108ec8383611dad565b505050565b6108f9611e1b565b61090283611e74565b61091e5760405162461bcd60e51b815260040161084b906131cc565b33610928846115c2565b6001600160a01b03161461096e5760405162461bcd60e51b815260206004820152600d60248201526c2737ba103a34329037bbb732b960991b604482015260640161084b565b803410156109b55760405162461bcd60e51b8152602060048201526014602482015273125b9cdd59999a58da595b9d081c185e5b595b9d60621b604482015260640161084b565b6000838152600e60205260408120600501546001600160a01b0316906127106109df60fa8561320f565b6109e99190613226565b905060006109f78285613248565b9050610a04338688611e91565b8115610a86576040516001600160a01b0384169083156108fc029084906000818181858888f19350505050158015610a40573d6000803e3d6000fd5b50826001600160a01b0316867ff670029fc6f5302baba881b4ae845d1453acdf752b4c19ed81fe0fa6a686409b84604051610a7d91815260200190565b60405180910390a35b8015610abb57604051339082156108fc029083906000818181858888f19350505050158015610ab9573d6000803e3d6000fd5b505b83341115610afb57336108fc610ad18634613248565b6040518115909202916000818181858888f19350505050158015610af9573d6000803e3d6000fd5b505b846001600160a01b0316336001600160a01b0316877f85baeb00749dba8ba3f937933d6531816dd608eb15062a99d51bcc996f3be2dc87604051610b4191815260200190565b60405180910390a45050506108ec6001600c55565b610b5e612002565b6001600160a01b038116610ba65760405162461bcd60e51b815260206004820152600f60248201526e496e76616c6964206164647265737360881b604482015260640161084b565b601080546001600160a01b0319166001600160a01b0392909216919091179055565b610bd2338261205c565b610bee5760405162461bcd60e51b815260040161084b9061325b565b6108ec838383611e91565b600080610c0584611e74565b610c485760405162461bcd60e51b8152602060048201526014602482015273151bdad95b88191bd95cc81b9bdd08195e1a5cdd60621b604482015260640161084b565b6000612710610c5860fa8661320f565b610c629190613226565b6010546001600160a01b0316969095509350505050565b600f6020528160005260406000208181548110610c9557600080fd5b90600052602060002001600091509150505481565b6000610cb583611622565b8210610d175760405162461bcd60e51b815260206004820152602b60248201527f455243373231456e756d657261626c653a206f776e657220696e646578206f7560448201526a74206f6620626f756e647360a81b606482015260840161084b565b506001600160a01b03919091166000908152600760209081526040808320938352929052205490565b6108ec83838360405180602001604052806000815250611a07565b600080610d67600d5490565b9050610d77600d80546001019055565b60408051610120810182528b815260208082018c90528183018b9052606082018a9052608082018990523360a083015260c0820188905260e0820187905260006101008301819052848152600e9091529190912081518190610dd990826132f8565b5060208201516001820190610dee90826132f8565b5060408201516002820190610e0390826132f8565b50606082015160038201556080820151600482015560a08201516005820180546001600160a01b0319166001600160a01b0390921691909117905560c08201516006820190610e5290826132f8565b5060e08201516007820155610100909101516008909101805460ff1916911515919091179055336000908152600f6020908152604082208054600181018255908352912001819055610ea430826120db565b610eae81846120f5565b336001600160a01b0316817f6f135e7edf5d706d18d2e941bc304d7688ac33f3a68a4c518953bb27d3bd5c668c87604051610eea9291906133b8565b60405180910390a39998505050505050505050565b6000610f0a60095490565b8210610f6d5760405162461bcd60e51b815260206004820152602c60248201527f455243373231456e756d657261626c653a20676c6f62616c20696e646578206f60448201526b7574206f6620626f756e647360a01b606482015260840161084b565b60098281548110610f8057610f806133da565b90600052602060002001549050919050565b610f9a611e1b565b610fa381611e74565b610fbf5760405162461bcd60e51b815260040161084b906131cc565b6000818152600e602052604090206008015460ff166110155760405162461bcd60e51b815260206004820152601260248201527146696c6d206973206e6f742061637469766560701b604482015260640161084b565b3061101f826115c2565b6001600160a01b0316146110755760405162461bcd60e51b815260206004820152601f60248201527f46696c6d206e6f7420617661696c61626c6520666f7220707572636861736500604482015260640161084b565b6000818152600e60205260409020600701543410156110cd5760405162461bcd60e51b8152602060048201526014602482015273125b9cdd59999a58da595b9d081c185e5b595b9d60621b604482015260640161084b565b6000818152600e6020526040812060058101546007909101546001600160a01b039091169161271061110060648461320f565b61110a9190613226565b9050600061271061111c60fa8561320f565b6111269190613226565b90506000816111358486613248565b61113f9190613248565b905061114c303388611e91565b821561118e576011546040516001600160a01b039091169084156108fc029085906000818181858888f1935050505015801561118c573d6000803e3d6000fd5b505b81156111d0576010546040516001600160a01b039091169083156108fc029084906000818181858888f193505050501580156111ce573d6000803e3d6000fd5b505b801561120e576040516001600160a01b0386169082156108fc029083906000818181858888f1935050505015801561120c573d6000803e3d6000fd5b505b8334111561124e57336108fc6112248634613248565b6040518115909202916000818181858888f1935050505015801561124c573d6000803e3d6000fd5b505b604051848152339087907f740d99a7008bfa80a5ed97a544a58dd47fcb028164a11e72aa9beb01979af4709060200160405180910390a350505050506112946001600c55565b50565b6112f1604051806101200160405280606081526020016060815260200160608152602001600081526020016000815260200160006001600160a01b0316815260200160608152602001600081526020016000151581525090565b6112fa82611e74565b6113165760405162461bcd60e51b815260040161084b906131cc565b6000828152600e6020526040908190208151610120810190925280548290829061133f90613192565b80601f016020809104026020016040519081016040528092919081815260200182805461136b90613192565b80156113b85780601f1061138d576101008083540402835291602001916113b8565b820191906000526020600020905b81548152906001019060200180831161139b57829003601f168201915b505050505081526020016001820180546113d190613192565b80601f01602080910402602001604051908101604052809291908181526020018280546113fd90613192565b801561144a5780601f1061141f5761010080835404028352916020019161144a565b820191906000526020600020905b81548152906001019060200180831161142d57829003601f168201915b5050505050815260200160028201805461146390613192565b80601f016020809104026020016040519081016040528092919081815260200182805461148f90613192565b80156114dc5780601f106114b1576101008083540402835291602001916114dc565b820191906000526020600020905b8154815290600101906020018083116114bf57829003601f168201915b5050509183525050600382015460208201526004820154604082015260058201546001600160a01b0316606082015260068201805460809092019161152090613192565b80601f016020809104026020016040519081016040528092919081815260200182805461154c90613192565b80156115995780601f1061156e57610100808354040283529160200191611599565b820191906000526020600020905b81548152906001019060200180831161157c57829003601f168201915b50505091835250506007820154602082015260089091015460ff16151560409091015292915050565b6000818152600260205260408120546001600160a01b0316806107185760405162461bcd60e51b8152602060048201526018602482015277115490cdcc8c4e881a5b9d985b1a59081d1bdad95b88125160421b604482015260640161084b565b60006001600160a01b03821661168c5760405162461bcd60e51b815260206004820152602960248201527f4552433732313a2061646472657373207a65726f206973206e6f7420612076616044820152683634b21037bbb732b960b91b606482015260840161084b565b506001600160a01b031660009081526003602052604090205490565b6116b0612002565b6116ba60006121b1565b565b6001600160a01b0381166000908152600f602090815260409182902080548351818402810184019094528084526060939283018282801561171c57602002820191906000526020600020905b815481526020019060010190808311611708575b50505050509050919050565b600e6020526000908152604090208054819061174390613192565b80601f016020809104026020016040519081016040528092919081815260200182805461176f90613192565b80156117bc5780601f10611791576101008083540402835291602001916117bc565b820191906000526020600020905b81548152906001019060200180831161179f57829003601f168201915b5050505050908060010180546117d190613192565b80601f01602080910402602001604051908101604052809291908181526020018280546117fd90613192565b801561184a5780601f1061181f5761010080835404028352916020019161184a565b820191906000526020600020905b81548152906001019060200180831161182d57829003601f168201915b50505050509080600201805461185f90613192565b80601f016020809104026020016040519081016040528092919081815260200182805461188b90613192565b80156118d85780601f106118ad576101008083540402835291602001916118d8565b820191906000526020600020905b8154815290600101906020018083116118bb57829003601f168201915b505050600384015460048501546005860154600687018054969793969295506001600160a01b0390911693509061190e90613192565b80601f016020809104026020016040519081016040528092919081815260200182805461193a90613192565b80156119875780601f1061195c57610100808354040283529160200191611987565b820191906000526020600020905b81548152906001019060200180831161196a57829003601f168201915b50505050600783015460089093015491929160ff16905089565b60606001805461072d90613192565b6119b8612002565b6119c181611e74565b6119dd5760405162461bcd60e51b815260040161084b906131cc565b6000908152600e60205260409020600801805460ff19169055565b611a03338383612203565b5050565b611a11338361205c565b611a2d5760405162461bcd60e51b815260040161084b9061325b565b611a39848484846122d1565b50505050565b606061071882612304565b611a52612002565b611a5b81611e74565b611a775760405162461bcd60e51b815260040161084b906131cc565b6000818152600e602052604090206008015460ff1615611ad25760405162461bcd60e51b815260206004820152601660248201527546696c6d20697320616c72656164792061637469766560501b604482015260640161084b565b6000818152600e60205260409081902060088101805460ff19166001179055600581015491516001600160a01b039092169183917fa390b7ce1e3b942bdc41c8a8602f638cf09987fc326af4930c575f2d81306d7791611b3291906133f0565b60405180910390a350565b611b45612002565b6001600160a01b038116611baa5760405162461bcd60e51b815260206004820152602660248201527f4f776e61626c653a206e6577206f776e657220697320746865207a65726f206160448201526564647265737360d01b606482015260840161084b565b611294816121b1565b611bbb612002565b6001600160a01b038116611c035760405162461bcd60e51b815260206004820152600f60248201526e496e76616c6964206164647265737360881b604482015260640161084b565b601180546001600160a01b0319166001600160a01b0392909216919091179055565b611c2e82611e74565b611c4a5760405162461bcd60e51b815260040161084b906131cc565b33611c54836115c2565b6001600160a01b031614611c9a5760405162461bcd60e51b815260206004820152600d60248201526c2737ba103a34329037bbb732b960991b604482015260640161084b565b60008111611cea5760405162461bcd60e51b815260206004820152601c60248201527f5072696365206d7573742062652067726561746572207468616e203000000000604482015260640161084b565b6000828152600e6020908152604080832060070184905551838152339185917f85baeb00749dba8ba3f937933d6531816dd608eb15062a99d51bcc996f3be2dc910160405180910390a45050565b60006001600160e01b0319821663780e9d6360e01b148061071857506107188261240c565b611d6681611e74565b6112945760405162461bcd60e51b8152602060048201526018602482015277115490cdcc8c4e881a5b9d985b1a59081d1bdad95b88125160421b604482015260640161084b565b600081815260046020526040902080546001600160a01b0319166001600160a01b0384169081179091558190611de2826115c2565b6001600160a01b03167f8c5be1e5ebec7d5bd14f71427d1e84f3dd0314c0f7b2291e5b200ac8c7c3b92560405160405180910390a45050565b6002600c5403611e6d5760405162461bcd60e51b815260206004820152601f60248201527f5265656e7472616e637947756172643a207265656e7472616e742063616c6c00604482015260640161084b565b6002600c55565b6000908152600260205260409020546001600160a01b0316151590565b826001600160a01b0316611ea4826115c2565b6001600160a01b031614611eca5760405162461bcd60e51b815260040161084b90613480565b6001600160a01b038216611f2c5760405162461bcd60e51b8152602060048201526024808201527f4552433732313a207472616e7366657220746f20746865207a65726f206164646044820152637265737360e01b606482015260840161084b565b611f398383836001612431565b826001600160a01b0316611f4c826115c2565b6001600160a01b031614611f725760405162461bcd60e51b815260040161084b90613480565b600081815260046020908152604080832080546001600160a01b03199081169091556001600160a01b0387811680865260038552838620805460001901905590871680865283862080546001019055868652600290945282852080549092168417909155905184937fddf252ad1be2c89b69c2b068fc378daa952ba7f163c4a11628f55a4df523b3ef91a4505050565b600b546001600160a01b031633146116ba5760405162461bcd60e51b815260206004820181905260248201527f4f776e61626c653a2063616c6c6572206973206e6f7420746865206f776e6572604482015260640161084b565b600080612068836115c2565b9050806001600160a01b0316846001600160a01b031614806120af57506001600160a01b0380821660009081526005602090815260408083209388168352929052205460ff165b806120d35750836001600160a01b03166120c8846107b0565b6001600160a01b0316145b949350505050565b611a0382826040518060200160405280600081525061243d565b6120fe82611e74565b6121615760405162461bcd60e51b815260206004820152602e60248201527f45524337323155524953746f726167653a2055524920736574206f66206e6f6e60448201526d32bc34b9ba32b73a103a37b5b2b760911b606482015260840161084b565b600082815260066020526040902061217982826132f8565b506040518281527ff8e1a15aba9398e019f0b49df1a4fde98ee17ae345cb5f6b5e2c27f5033e8ce79060200160405180910390a15050565b600b80546001600160a01b038381166001600160a01b0319831681179093556040519116919082907f8be0079c531659141344cd1fd0a4f28419497f9722a3daafe3b4186f6b6457e090600090a35050565b816001600160a01b0316836001600160a01b0316036122645760405162461bcd60e51b815260206004820152601960248201527f4552433732313a20617070726f766520746f2063616c6c657200000000000000604482015260640161084b565b6001600160a01b03838116600081815260056020908152604080832094871680845294825291829020805460ff191686151590811790915591519182527f17307eab39ab6107e8899845ad3d59bd9653f200f220920489ca2b5937696c31910160405180910390a3505050565b6122dc848484611e91565b6122e884848484612470565b611a395760405162461bcd60e51b815260040161084b906134c5565b606061230f82611d5d565b6000828152600660205260408120805461232890613192565b80601f016020809104026020016040519081016040528092919081815260200182805461235490613192565b80156123a15780601f10612376576101008083540402835291602001916123a1565b820191906000526020600020905b81548152906001019060200180831161238457829003601f168201915b5050505050905060006123bf60408051602081019091526000815290565b905080516000036123d1575092915050565b8151156124035780826040516020016123eb929190613517565b60405160208183030381529060405292505050919050565b6120d384612571565b60006001600160e01b03198216632483248360e11b14806107185750610718826125e5565b611a3984848484612635565b6124478383612769565b6124546000848484612470565b6108ec5760405162461bcd60e51b815260040161084b906134c5565b60006001600160a01b0384163b1561256657604051630a85bd0160e11b81526001600160a01b0385169063150b7a02906124b4903390899088908890600401613546565b6020604051808303816000875af19250505080156124ef575060408051601f3d908101601f191682019092526124ec91810190613583565b60015b61254c573d80801561251d576040519150601f19603f3d011682016040523d82523d6000602084013e612522565b606091505b5080516000036125445760405162461bcd60e51b815260040161084b906134c5565b805181602001fd5b6001600160e01b031916630a85bd0160e11b1490506120d3565b506001949350505050565b606061257c82611d5d565b600061259360408051602081019091526000815290565b905060008151116125b357604051806020016040528060008152506125de565b806125bd846128e4565b6040516020016125ce929190613517565b6040516020818303038152906040525b9392505050565b60006001600160e01b031982166380ac58cd60e01b148061261657506001600160e01b03198216635b5e139f60e01b145b8061071857506301ffc9a760e01b6001600160e01b0319831614610718565b60018111156126a45760405162461bcd60e51b815260206004820152603560248201527f455243373231456e756d657261626c653a20636f6e7365637574697665207472604482015274185b9cd9995c9cc81b9bdd081cdd5c1c1bdc9d1959605a1b606482015260840161084b565b816001600160a01b038516612700576126fb81600980546000838152600a60205260408120829055600182018355919091527f6e1540171b6c0c960b71a7020d9f60077f6af931a8bbf590da0223dacf75c7af0155565b612723565b836001600160a01b0316856001600160a01b031614612723576127238582612977565b6001600160a01b03841661273f5761273a81612a14565b612762565b846001600160a01b0316846001600160a01b031614612762576127628482612ac3565b5050505050565b6001600160a01b0382166127bf5760405162461bcd60e51b815260206004820181905260248201527f4552433732313a206d696e7420746f20746865207a65726f2061646472657373604482015260640161084b565b6127c881611e74565b156128155760405162461bcd60e51b815260206004820152601c60248201527f4552433732313a20746f6b656e20616c7265616479206d696e74656400000000604482015260640161084b565b612823600083836001612431565b61282c81611e74565b156128795760405162461bcd60e51b815260206004820152601c60248201527f4552433732313a20746f6b656e20616c7265616479206d696e74656400000000604482015260640161084b565b6001600160a01b038216600081815260036020908152604080832080546001019055848352600290915280822080546001600160a01b0319168417905551839291907fddf252ad1be2c89b69c2b068fc378daa952ba7f163c4a11628f55a4df523b3ef908290a45050565b606060006128f183612b07565b600101905060008167ffffffffffffffff81111561291157612911612d72565b6040519080825280601f01601f19166020018201604052801561293b576020820181803683370190505b5090508181016020015b600019016f181899199a1a9b1b9c1cb0b131b232b360811b600a86061a8153600a850494508461294557509392505050565b6000600161298484611622565b61298e9190613248565b6000838152600860205260409020549091508082146129e1576001600160a01b03841660009081526007602090815260408083208584528252808320548484528184208190558352600890915290208190555b5060009182526008602090815260408084208490556001600160a01b039094168352600781528383209183525290812055565b600954600090612a2690600190613248565b6000838152600a602052604081205460098054939450909284908110612a4e57612a4e6133da565b906000526020600020015490508060098381548110612a6f57612a6f6133da565b6000918252602080832090910192909255828152600a90915260408082208490558582528120556009805480612aa757612aa76135a0565b6001900381819060005260206000200160009055905550505050565b6000612ace83611622565b6001600160a01b039093166000908152600760209081526040808320868452825280832085905593825260089052919091209190915550565b60008072184f03e93ff9f4daa797ed6e38ed64bf6a1f0160401b8310612b465772184f03e93ff9f4daa797ed6e38ed64bf6a1f0160401b830492506040015b6d04ee2d6d415b85acef81000000008310612b72576d04ee2d6d415b85acef8100000000830492506020015b662386f26fc100008310612b9057662386f26fc10000830492506010015b6305f5e1008310612ba8576305f5e100830492506008015b6127108310612bbc57612710830492506004015b60648310612bce576064830492506002015b600a83106107185760010192915050565b6001600160e01b03198116811461129457600080fd5b600060208284031215612c0757600080fd5b81356125de81612bdf565b60005b83811015612c2d578181015183820152602001612c15565b50506000910152565b60008151808452612c4e816020860160208601612c12565b601f01601f19169290920160200192915050565b6020815260006125de6020830184612c36565b600060208284031215612c8757600080fd5b5035919050565b80356001600160a01b0381168114612ca557600080fd5b919050565b60008060408385031215612cbd57600080fd5b612cc683612c8e565b946020939093013593505050565b600080600060608486031215612ce957600080fd5b83359250612cf960208501612c8e565b9150604084013590509250925092565b600060208284031215612d1b57600080fd5b6125de82612c8e565b600080600060608486031215612d3957600080fd5b612d4284612c8e565b9250612cf960208501612c8e565b60008060408385031215612d6357600080fd5b50508035926020909101359150565b634e487b7160e01b600052604160045260246000fd5b600067ffffffffffffffff80841115612da357612da3612d72565b604051601f8501601f19908116603f01168101908282118183101715612dcb57612dcb612d72565b81604052809350858152868686011115612de457600080fd5b858560208301376000602087830101525050509392505050565b600082601f830112612e0f57600080fd5b6125de83833560208501612d88565b600080600080600080600080610100898b031215612e3b57600080fd5b883567ffffffffffffffff80821115612e5357600080fd5b612e5f8c838d01612dfe565b995060208b0135915080821115612e7557600080fd5b612e818c838d01612dfe565b985060408b0135915080821115612e9757600080fd5b612ea38c838d01612dfe565b975060608b0135965060808b0135955060a08b0135915080821115612ec757600080fd5b612ed38c838d01612dfe565b945060c08b0135935060e08b0135915080821115612ef057600080fd5b50612efd8b828c01612dfe565b9150509295985092959890939650565b6020815260008251610120806020850152612f2c610140850183612c36565b91506020850151601f1980868503016040870152612f4a8483612c36565b93506040870151915080868503016060870152612f678483612c36565b935060608701516080870152608087015160a087015260a08701519150612f9960c08701836001600160a01b03169052565b60c08701519150808685030160e087015250612fb58382612c36565b60e0870151610100878101919091529096015115159190940152509192915050565b6020808252825182820181905260009190848201906040850190845b8181101561300f57835183529284019291840191600101612ff3565b50909695505050505050565b600061012080835261302f8184018d612c36565b90508281036020840152613043818c612c36565b90508281036040840152613057818b612c36565b606084018a9052608084018990526001600160a01b03881660a085015283810360c085015290506130888187612c36565b60e0840195909552505090151561010090910152979650505050505050565b600080604083850312156130ba57600080fd5b6130c383612c8e565b9150602083013580151581146130d857600080fd5b809150509250929050565b600080600080608085870312156130f957600080fd5b61310285612c8e565b935061311060208601612c8e565b925060408501359150606085013567ffffffffffffffff81111561313357600080fd5b8501601f8101871361314457600080fd5b61315387823560208401612d88565b91505092959194509250565b6000806040838503121561317257600080fd5b61317b83612c8e565b915061318960208401612c8e565b90509250929050565b600181811c908216806131a657607f821691505b6020821081036131c657634e487b7160e01b600052602260045260246000fd5b50919050565b602080825260139082015272119a5b1b48191bd95cc81b9bdd08195e1a5cdd606a1b604082015260600190565b634e487b7160e01b600052601160045260246000fd5b8082028115828204841417610718576107186131f9565b60008261324357634e487b7160e01b600052601260045260246000fd5b500490565b81810381811115610718576107186131f9565b6020808252602d908201527f4552433732313a2063616c6c6572206973206e6f7420746f6b656e206f776e6560408201526c1c881bdc88185c1c1c9bdd9959609a1b606082015260800190565b601f8211156108ec576000816000526020600020601f850160051c810160208610156132d15750805b601f850160051c820191505b818110156132f0578281556001016132dd565b505050505050565b815167ffffffffffffffff81111561331257613312612d72565b613326816133208454613192565b846132a8565b602080601f83116001811461335b57600084156133435750858301515b600019600386901b1c1916600185901b1785556132f0565b600085815260208120601f198616915b8281101561338a5788860151825594840194600190910190840161336b565b50858210156133a85787850151600019600388901b60f8161c191681555b5050505050600190811b01905550565b6040815260006133cb6040830185612c36565b90508260208301529392505050565b634e487b7160e01b600052603260045260246000fd5b600060208083526000845461340481613192565b8060208701526040600180841660008114613426576001811461344257613472565b60ff19851660408a0152604084151560051b8a01019550613472565b89600052602060002060005b858110156134695781548b820186015290830190880161344e565b8a016040019650505b509398975050505050505050565b60208082526025908201527f4552433732313a207472616e736665722066726f6d20696e636f72726563742060408201526437bbb732b960d91b606082015260800190565b60208082526032908201527f4552433732313a207472616e7366657220746f206e6f6e20455243373231526560408201527131b2b4bb32b91034b6b83632b6b2b73a32b960711b606082015260800190565b60008351613529818460208801612c12565b83519083019061353d818360208801612c12565b01949350505050565b6001600160a01b038581168252841660208201526040810183905260806060820181905260009061357990830184612c36565b9695505050505050565b60006020828403121561359557600080fd5b81516125de81612bdf565b634e487b7160e01b600052603160045260246000fdfea26469706673582212205ab10bb49cf90dccda5adf25e5c50ef960c64946d53de17941515386ee85eed264736f6c63430008180033",
  "linkReferences": {},
  "deployedLinkReferences": {}
}