{
  "_format": "hh-sol-artifact-1",
  "contractName": "QuiFlixContent",
  "sourceName": "contracts/QuiFlixContent.sol",
  "abi": [
    {
      "inputs": [
        {
          "internalType": "address",
          "name": "_producer",
          "type": "address"
        },
        {
          "internalType": "uint256",
          "name": "_producerPercentage",
          "type": "uint256"
        },
        {
          "internalType": "address",
          "name": "_platform",
          "type": "address"
        },
        {
          "internalType": "uint256",
          "name": "_platformPercentage",
          "type": "uint256"
        }
      ],
      "stateMutability": "nonpayable",
      "type": "constructor"
    },
    {
      "anonymous": false,
      "inputs": [
        {
          "indexed": true,
          "internalType": "uint256",
          "name": "contentId",
          "type": "uint256"
        },
        {
          "indexed": true,
          "internalType": "address",
          "name": "producer",
          "type": "address"
        },
        {
          "indexed": false,
          "internalType": "string",
          "name": "title",
          "type": "string"
        },
        {
          "indexed": false,
          "internalType": "string",
          "name": "ipfsHash",
          "type": "string"
        }
      ],
      "name": "ContentCreated",
      "type": "event"
    },
    {
      "anonymous": false,
      "inputs": [
        {
          "indexed": true,
          "internalType": "address",
          "name": "previousOwner",
          "type": "address"
        },
        {
          "indexed": true,
          "internalType": "address",
          "name": "newOwner",
          "type": "address"
        }
      ],
      "name": "OwnershipTransferred",
      "type": "event"
    },
    {
      "anonymous": false,
      "inputs": [
        {
          "indexed": false,
          "internalType": "address",
          "name": "account",
          "type": "address"
        }
      ],
      "name": "Paused",
      "type": "event"
    },
    {
      "anonymous": false,
      "inputs": [
        {
          "indexed": false,
          "internalType": "uint256",
          "name": "producerPercentage",
          "type": "uint256"
        },
        {
          "indexed": false,
          "internalType": "uint256",
          "name": "platformPercentage",
          "type": "uint256"
        }
      ],
      "name": "PaymentSplitUpdated",
      "type": "event"
    },
    {
      "anonymous": false,
      "inputs": [
        {
          "indexed": true,
          "internalType": "uint256",
          "name": "contentId",
          "type": "uint256"
        },
        {
          "indexed": true,
          "internalType": "address",
          "name": "producer",
          "type": "address"
        },
        {
          "indexed": false,
          "internalType": "uint256",
          "name": "producerAmount",
          "type": "uint256"
        },
        {
          "indexed": false,
          "internalType": "uint256",
          "name": "platformAmount",
          "type": "uint256"
        }
      ],
      "name": "RevenueDistributed",
      "type": "event"
    },
    {
      "anonymous": false,
      "inputs": [
        {
          "indexed": false,
          "internalType": "address",
          "name": "account",
          "type": "address"
        }
      ],
      "name": "Unpaused",
      "type": "event"
    },
    {
      "anonymous": false,
      "inputs": [
        {
          "indexed": true,
          "internalType": "uint256",
          "name": "contentId",
          "type": "uint256"
        },
        {
          "indexed": true,
          "internalType": "address",
          "name": "viewer",
          "type": "address"
        }
      ],
      "name": "ViewRecorded",
      "type": "event"
    },
    {
      "inputs": [
        {
          "internalType": "uint256",
          "name": "",
          "type": "uint256"
        }
      ],
      "name": "contents",
      "outputs": [
        {
          "internalType": "uint256",
          "name": "contentId",
          "type": "uint256"
        },
        {
          "internalType": "string",
          "name": "title",
          "type": "string"
        },
        {
          "internalType": "string",
          "name": "ipfsHash",
          "type": "string"
        },
        {
          "internalType": "address",
          "name": "producer",
          "type": "address"
        },
        {
          "internalType": "uint256",
          "name": "totalRevenue",
          "type": "uint256"
        },
        {
          "internalType": "uint256",
          "name": "totalViews",
          "type": "uint256"
        },
        {
          "internalType": "bool",
          "name": "isActive",
          "type": "bool"
        },
        {
          "internalType": "uint256",
          "name": "createdAt",
          "type": "uint256"
        }
      ],
      "stateMutability": "view",
      "type": "function"
    },
    {
      "inputs": [
        {
          "internalType": "string",
          "name": "_title",
          "type": "string"
        },
        {
          "internalType": "string",
          "name": "_ipfsHash",
          "type": "string"
        }
      ],
      "name": "createContent",
      "outputs": [
        {
          "internalType": "uint256",
          "name": "",
          "type": "uint256"
        }
      ],
      "stateMutability": "nonpayable",
      "type": "function"
    },
    {
      "inputs": [
        {
          "internalType": "uint256",
          "name": "_contentId",
          "type": "uint256"
        }
      ],
      "name": "deactivateContent",
      "outputs": [],
      "stateMutability": "nonpayable",
      "type": "function"
    },
    {
      "inputs": [
        {
          "internalType": "uint256",
          "name": "_contentId",
          "type": "uint256"
        }
      ],
      "name": "distributeRevenue",
      "outputs": [],
      "stateMutability": "payable",
      "type": "function"
    },
    {
      "inputs": [],
      "name": "emergencyWithdraw",
      "outputs": [],
      "stateMutability": "nonpayable",
      "type": "function"
    },
    {
      "inputs": [
        {
          "internalType": "uint256",
          "name": "_contentId",
          "type": "uint256"
        }
      ],
      "name": "getContent",
      "outputs": [
        {
          "components": [
            {
              "internalType": "uint256",
              "name": "contentId",
              "type": "uint256"
            },
            {
              "internalType": "string",
              "name": "title",
              "type": "string"
            },
            {
              "internalType": "string",
              "name": "ipfsHash",
              "type": "string"
            },
            {
              "internalType": "address",
              "name": "producer",
              "type": "address"
            },
            {
              "internalType": "uint256",
              "name": "totalRevenue",
              "type": "uint256"
            },
            {
              "internalType": "uint256",
              "name": "totalViews",
              "type": "uint256"
            },
            {
              "internalType": "bool",
              "name": "isActive",
              "type": "bool"
            },
            {
              "internalType": "uint256",
              "name": "createdAt",
              "type": "uint256"
            }
          ],
          "internalType": "struct QuiFlixContent.Content",
          "name": "",
          "type": "tuple"
        }
      ],
      "stateMutability": "view",
      "type": "function"
    },
    {
      "inputs": [
        {
          "internalType": "address",
          "name": "_producer",
          "type": "address"
        }
      ],
      "name": "getProducerContent",
      "outputs": [
        {
          "internalType": "uint256[]",
          "name": "",
          "type": "uint256[]"
        }
      ],
      "stateMutability": "view",
      "type": "function"
    },
    {
      "inputs": [],
      "name": "owner",
      "outputs": [
        {
          "internalType": "address",
          "name": "",
          "type": "address"
        }
      ],
      "stateMutability": "view",
      "type": "function"
    },
    {
      "inputs": [],
      "name": "pause",
      "outputs": [],
      "stateMutability": "nonpayable",
      "type": "function"
    },
    {
      "inputs": [],
      "name": "paused",
      "outputs": [
        {
          "internalType": "bool",
          "name": "",
          "type": "bool"
        }
      ],
      "stateMutability": "view",
      "type": "function"
    },
    {
      "inputs": [],
      "name": "paymentSplit",
      "outputs": [
        {
          "internalType": "address",
          "name": "producer",
          "type": "address"
        },
        {
          "internalType": "uint256",
          "name": "producerPercentage",
          "type": "uint256"
        },
        {
          "internalType": "address",
          "name": "platform",
          "type": "address"
        },
        {
          "internalType": "uint256",
          "name": "platformPercentage",
          "type": "uint256"
        }
      ],
      "stateMutability": "view",
      "type": "function"
    },
    {
      "inputs": [
        {
          "internalType": "address",
          "name": "",
          "type": "address"
        },
        {
          "internalType": "uint256",
          "name": "",
          "type": "uint256"
        }
      ],
      "name": "producerContent",
      "outputs": [
        {
          "internalType": "uint256",
          "name": "",
          "type": "uint256"
        }
      ],
      "stateMutability": "view",
      "type": "function"
    },
    {
      "inputs": [
        {
          "internalType": "uint256",
          "name": "_contentId",
          "type": "uint256"
        }
      ],
      "name": "recordView",
      "outputs": [],
      "stateMutability": "nonpayable",
      "type": "function"
    },
    {
      "inputs": [],
      "name": "renounceOwnership",
      "outputs": [],
      "stateMutability": "nonpayable",
      "type": "function"
    },
    {
      "inputs": [
        {
          "internalType": "address",
          "name": "newOwner",
          "type": "address"
        }
      ],
      "name": "transferOwnership",
      "outputs": [],
      "stateMutability": "nonpayable",
      "type": "function"
    },
    {
      "inputs": [],
      "name": "unpause",
      "outputs": [],
      "stateMutability": "nonpayable",
      "type": "function"
    },
    {
      "inputs": [
        {
          "internalType": "uint256",
          "name": "_producerPercentage",
          "type": "uint256"
        },
        {
          "internalType": "uint256",
          "name": "_platformPercentage",
          "type": "uint256"
        }
      ],
      "name": "updatePaymentSplit",
      "outputs": [],
      "stateMutability": "nonpayable",
      "type": "function"
    },
    {
      "inputs": [
        {
          "internalType": "address",
          "name": "_newPlatform",
          "type": "address"
        }
      ],
      "name": "updatePlatform",
      "outputs": [],
      "stateMutability": "nonpayable",
      "type": "function"
    },
    {
      "inputs": [
        {
          "internalType": "address",
          "name": "_newProducer",
          "type": "address"
        }
      ],
      "name": "updateProducer",
      "outputs": [],
      "stateMutability": "nonpayable",
      "type": "function"
    }
  ],
  "bytecode": "0x60806040523480156200001157600080fd5b50604051620019943803806200199483398101604081905262000034916200022e565b6200003f33620001c1565b600180556002805460ff191690556001600160a01b038416620000a95760405162461bcd60e51b815260206004820152601860248201527f496e76616c69642070726f64756365722061646472657373000000000000000060448201526064015b60405180910390fd5b6001600160a01b038216620001015760405162461bcd60e51b815260206004820152601860248201527f496e76616c696420706c6174666f726d206164647265737300000000000000006044820152606401620000a0565b6200010d818462000277565b612710146200015f5760405162461bcd60e51b815260206004820152601c60248201527f50657263656e7461676573206d7573742073756d20746f2031303025000000006044820152606401620000a0565b604080516080810182526001600160a01b0395861680825260208201869052939095169085018190526060909401819052600680546001600160a01b03199081169093179055600792909255600880549091169092179091556009556200029f565b600080546001600160a01b038381166001600160a01b0319831681178455604051919092169283917f8be0079c531659141344cd1fd0a4f28419497f9722a3daafe3b4186f6b6457e09190a35050565b80516001600160a01b03811681146200022957600080fd5b919050565b600080600080608085870312156200024557600080fd5b620002508562000211565b935060208501519250620002676040860162000211565b6060959095015193969295505050565b808201808211156200029957634e487b7160e01b600052601160045260246000fd5b92915050565b6116e580620002af6000396000f3fe6080604052600436106101145760003560e01c8063a293da0f116100a0578063cb29252811610064578063cb29252814610334578063db2e21bc14610354578063f2d0811f14610369578063f2fde38b14610389578063fe1c4e79146103a957600080fd5b8063a293da0f1461022e578063a3f5fafd1461024e578063aac7416b1461027c578063b0e2bd72146102e0578063b5ecf9121461030057600080fd5b806359fde1e0116100e757806359fde1e0146101a65780635c975abb146101b9578063715018a6146101dc5780638456cb59146101f15780638da5cb5b1461020657600080fd5b80630b7ad54c146101195780631f7ba1341461014f578063372d939d146101715780633f4ba83a14610191575b600080fd5b34801561012557600080fd5b50610139610134366004611149565b6103d6565b60405161014691906111a8565b60405180910390f35b34801561015b57600080fd5b5061016f61016a366004611149565b6105e7565b005b34801561017d57600080fd5b5061016f61018c36600461123e565b6106b3565b34801561019d57600080fd5b5061016f61075c565b61016f6101b4366004611149565b61076e565b3480156101c557600080fd5b5060025460ff166040519015158152602001610146565b3480156101e857600080fd5b5061016f61095b565b3480156101fd57600080fd5b5061016f61096d565b34801561021257600080fd5b506000546040516001600160a01b039091168152602001610146565b34801561023a57600080fd5b5061016f61024936600461127c565b61097d565b34801561025a57600080fd5b5061026e610269366004611341565b6109fd565b604051908152602001610146565b34801561028857600080fd5b506006546007546008546009546102ab936001600160a01b039081169392169084565b60405161014694939291906001600160a01b039485168152602081019390935292166040820152606081019190915260800190565b3480156102ec57600080fd5b5061016f6102fb36600461127c565b610b67565b34801561030c57600080fd5b5061032061031b366004611149565b610be7565b6040516101469897969594939291906113a5565b34801561034057600080fd5b5061026e61034f36600461140a565b610d47565b34801561036057600080fd5b5061016f610d78565b34801561037557600080fd5b5061016f610384366004611149565b610e02565b34801561039557600080fd5b5061016f6103a436600461127c565b610e46565b3480156103b557600080fd5b506103c96103c436600461127c565b610ebc565b6040516101469190611434565b61042960405180610100016040528060008152602001606081526020016060815260200160006001600160a01b031681526020016000815260200160008152602001600015158152602001600081525090565b60035482106104535760405162461bcd60e51b815260040161044a90611478565b60405180910390fd5b60046000838152602001908152602001600020604051806101000160405290816000820154815260200160018201805461048c906114a8565b80601f01602080910402602001604051908101604052809291908181526020018280546104b8906114a8565b80156105055780601f106104da57610100808354040283529160200191610505565b820191906000526020600020905b8154815290600101906020018083116104e857829003601f168201915b5050505050815260200160028201805461051e906114a8565b80601f016020809104026020016040519081016040528092919081815260200182805461054a906114a8565b80156105975780601f1061056c57610100808354040283529160200191610597565b820191906000526020600020905b81548152906001019060200180831161057a57829003601f168201915b505050918352505060038201546001600160a01b031660208201526004820154604082015260058201546060820152600682015460ff161515608082015260079091015460a09091015292915050565b60035481106106085760405162461bcd60e51b815260040161044a90611478565b60008181526004602052604090206006015460ff166106615760405162461bcd60e51b8152602060048201526015602482015274436f6e74656e74206973206e6f742061637469766560581b604482015260640161044a565b600081815260046020526040812060050180549161067e836114f8565b9091555050604051339082907f95240bc2434a3ca935120067f94fc9b4846553c370f92af763e8aa656d8ab7cb90600090a350565b6106bb610f28565b6106c58183611511565b612710146107155760405162461bcd60e51b815260206004820152601c60248201527f50657263656e7461676573206d7573742073756d20746f203130302500000000604482015260640161044a565b6007829055600981905560408051838152602081018390527fbb3e10bb52a57fe1a6338426f1ab3bf4084360ae2ac1c3636902e93690f3884e910160405180910390a15050565b610764610f28565b61076c610f82565b565b610776610fd4565b60035481106107975760405162461bcd60e51b815260040161044a90611478565b600034116107dd5760405162461bcd60e51b8152602060048201526013602482015272139bc81c185e5b595b9d081c9958d95a5d9959606a1b604482015260640161044a565b6000818152600460205260409020600681015460ff166108375760405162461bcd60e51b8152602060048201526015602482015274436f6e74656e74206973206e6f742061637469766560581b604482015260640161044a565b6007546000906127109061084b9034611524565b610855919061153b565b90506000610863823461155d565b9050348360040160008282546108799190611511565b909155505081156108c0576006546040516001600160a01b039091169083156108fc029084906000818181858888f193505050501580156108be573d6000803e3d6000fd5b505b8015610902576008546040516001600160a01b039091169082156108fc029083906000818181858888f19350505050158015610900573d6000803e3d6000fd5b505b60065460408051848152602081018490526001600160a01b039092169186917f02c88a5222da2addd6056425e4fbd5232716bb1959ad94700832de103f94b47f910160405180910390a350505061095860018055565b50565b610963610f28565b61076c600061102d565b610975610f28565b61076c61107d565b610985610f28565b6001600160a01b0381166109db5760405162461bcd60e51b815260206004820152601860248201527f496e76616c696420706c6174666f726d20616464726573730000000000000000604482015260640161044a565b600880546001600160a01b0319166001600160a01b0392909216919091179055565b6000610a076110ba565b6000610a1260035490565b9050610a22600380546001019055565b6040805161010081018252828152602080820187815282840187905233606084015260006080840181905260a08401819052600160c085018190524260e086015286825260049093529390932082518155925191929190820190610a8690826115c1565b5060408201516002820190610a9b90826115c1565b5060608201516003820180546001600160a01b0319166001600160a01b039092169190911790556080820151600482015560a082015160058083019190915560c083015160068301805460ff191691151591909117905560e09092015160079091015533600081815260209283526040808220805460018101825590835293909120909201839055905182907f4e5bf6cf99713bfd521b5b085ede7723cb9ccb592e6160a749e842f0ed90721690610b569088908890611681565b60405180910390a390505b92915050565b610b6f610f28565b6001600160a01b038116610bc55760405162461bcd60e51b815260206004820152601860248201527f496e76616c69642070726f647563657220616464726573730000000000000000604482015260640161044a565b600680546001600160a01b0319166001600160a01b0392909216919091179055565b60046020526000908152604090208054600182018054919291610c09906114a8565b80601f0160208091040260200160405190810160405280929190818152602001828054610c35906114a8565b8015610c825780601f10610c5757610100808354040283529160200191610c82565b820191906000526020600020905b815481529060010190602001808311610c6557829003601f168201915b505050505090806002018054610c97906114a8565b80601f0160208091040260200160405190810160405280929190818152602001828054610cc3906114a8565b8015610d105780601f10610ce557610100808354040283529160200191610d10565b820191906000526020600020905b815481529060010190602001808311610cf357829003601f168201915b50505050600383015460048401546005850154600686015460079096015494956001600160a01b03909316949193509160ff169088565b60056020528160005260406000208181548110610d6357600080fd5b90600052602060002001600091509150505481565b610d80610f28565b4780610dc55760405162461bcd60e51b81526020600482015260146024820152734e6f2066756e647320746f20776974686472617760601b604482015260640161044a565b600080546040516001600160a01b039091169183156108fc02918491818181858888f19350505050158015610dfe573d6000803e3d6000fd5b5050565b610e0a610f28565b6003548110610e2b5760405162461bcd60e51b815260040161044a90611478565b6000908152600460205260409020600601805460ff19169055565b610e4e610f28565b6001600160a01b038116610eb35760405162461bcd60e51b815260206004820152602660248201527f4f776e61626c653a206e6577206f776e657220697320746865207a65726f206160448201526564647265737360d01b606482015260840161044a565b6109588161102d565b6001600160a01b038116600090815260056020908152604091829020805483518184028101840190945280845260609392830182828015610f1c57602002820191906000526020600020905b815481526020019060010190808311610f08575b50505050509050919050565b6000546001600160a01b0316331461076c5760405162461bcd60e51b815260206004820181905260248201527f4f776e61626c653a2063616c6c6572206973206e6f7420746865206f776e6572604482015260640161044a565b610f8a611100565b6002805460ff191690557f5db9ee0a495bf2e6ff9c91a7834c1ba4fdd244a5e8aa4e537bd38aeae4b073aa335b6040516001600160a01b03909116815260200160405180910390a1565b6002600154036110265760405162461bcd60e51b815260206004820152601f60248201527f5265656e7472616e637947756172643a207265656e7472616e742063616c6c00604482015260640161044a565b6002600155565b600080546001600160a01b038381166001600160a01b0319831681178455604051919092169283917f8be0079c531659141344cd1fd0a4f28419497f9722a3daafe3b4186f6b6457e09190a35050565b6110856110ba565b6002805460ff191660011790557f62e78cea01bee320cd4e420270b5ea74000d11b0c9f74754ebdbfc544b05a258610fb73390565b60025460ff161561076c5760405162461bcd60e51b815260206004820152601060248201526f14185d5cd8589b194e881c185d5cd95960821b604482015260640161044a565b60025460ff1661076c5760405162461bcd60e51b815260206004820152601460248201527314185d5cd8589b194e881b9bdd081c185d5cd95960621b604482015260640161044a565b60006020828403121561115b57600080fd5b5035919050565b6000815180845260005b818110156111885760208185018101518683018201520161116c565b506000602082860101526020601f19601f83011685010191505092915050565b6020815281516020820152600060208301516101008060408501526111d1610120850183611162565b91506040850151601f198584030160608601526111ee8382611162565b92505060018060a01b036060860151166080850152608085015160a085015260a085015160c085015260c085015161122a60e086018215159052565b5060e0949094015192909301919091525090565b6000806040838503121561125157600080fd5b50508035926020909101359150565b80356001600160a01b038116811461127757600080fd5b919050565b60006020828403121561128e57600080fd5b61129782611260565b9392505050565b634e487b7160e01b600052604160045260246000fd5b600082601f8301126112c557600080fd5b813567ffffffffffffffff808211156112e0576112e061129e565b604051601f8301601f19908116603f011681019082821181831017156113085761130861129e565b8160405283815286602085880101111561132157600080fd5b836020870160208301376000602085830101528094505050505092915050565b6000806040838503121561135457600080fd5b823567ffffffffffffffff8082111561136c57600080fd5b611378868387016112b4565b9350602085013591508082111561138e57600080fd5b5061139b858286016112b4565b9150509250929050565b60006101008a83528060208401526113bf8184018b611162565b905082810360408401526113d3818a611162565b6001600160a01b039890981660608401525050608081019490945260a0840192909252151560c083015260e0909101529392505050565b6000806040838503121561141d57600080fd5b61142683611260565b946020939093013593505050565b6020808252825182820181905260009190848201906040850190845b8181101561146c57835183529284019291840191600101611450565b50909695505050505050565b60208082526016908201527510dbdb9d195b9d08191bd95cc81b9bdd08195e1a5cdd60521b604082015260600190565b600181811c908216806114bc57607f821691505b6020821081036114dc57634e487b7160e01b600052602260045260246000fd5b50919050565b634e487b7160e01b600052601160045260246000fd5b60006001820161150a5761150a6114e2565b5060010190565b80820180821115610b6157610b616114e2565b8082028115828204841417610b6157610b616114e2565b60008261155857634e487b7160e01b600052601260045260246000fd5b500490565b81810381811115610b6157610b616114e2565b601f8211156115bc576000816000526020600020601f850160051c810160208610156115995750805b601f850160051c820191505b818110156115b8578281556001016115a5565b5050505b505050565b815167ffffffffffffffff8111156115db576115db61129e565b6115ef816115e984546114a8565b84611570565b602080601f831160018114611624576000841561160c5750858301515b600019600386901b1c1916600185901b1785556115b8565b600085815260208120601f198616915b8281101561165357888601518255948401946001909101908401611634565b50858210156116715787850151600019600388901b60f8161c191681555b5050505050600190811b01905550565b6040815260006116946040830185611162565b82810360208401526116a68185611162565b9594505050505056fea2646970667358221220ed0db5ec762e1d6da79a93b3a5ad8e1846da883768b4fa1dec5b9f448ad4d42b64736f6c63430008180033",
  "linkReferences": {},
  "deployedLinkReferences": {}
}